{
  "address": "0xe7f1725E7734CE288F8367e1Bb143E90bb3F0512",
  "abi": [
    {
      "inputs": [
        {
          "internalType": "address",
          "name": "_tokenAddress",
          "type": "address"
        }
      ],
      "stateMutability": "nonpayable",
      "type": "constructor"
    },
    {
      "anonymous": false,
      "inputs": [
        {
          "indexed": false,
          "internalType": "bytes32",
          "name": "_eventId",
          "type": "bytes32"
        },
        {
          "indexed": false,
          "internalType": "address",
          "name": "_player",
          "type": "address"
        },
        {
          "indexed": false,
          "internalType": "uint8",
          "name": "_chosenWinner",
          "type": "uint8"
        },
        {
          "indexed": false,
          "internalType": "uint256",
          "name": "_amount",
          "type": "uint256"
        }
      ],
      "name": "BetPlaced",
      "type": "event"
    },
    {
      "anonymous": false,
      "inputs": [
        {
          "indexed": false,
          "internalType": "address",
          "name": "_address",
          "type": "address"
        }
      ],
      "name": "OracleAddressSet",
      "type": "event"
    },
    {
      "anonymous": false,
      "inputs": [
        {
          "indexed": true,
          "internalType": "address",
          "name": "previousOwner",
          "type": "address"
        },
        {
          "indexed": true,
          "internalType": "address",
          "name": "newOwner",
          "type": "address"
        }
      ],
      "name": "OwnershipTransferred",
      "type": "event"
    },
    {
      "inputs": [
        {
          "internalType": "address",
          "name": "_spender",
          "type": "address"
        },
        {
          "internalType": "uint256",
          "name": "_amount",
          "type": "uint256"
        }
      ],
      "name": "approve",
      "outputs": [],
      "stateMutability": "nonpayable",
      "type": "function"
    },
    {
      "inputs": [
        {
          "internalType": "address",
          "name": "_sender",
          "type": "address"
        },
        {
          "internalType": "uint256",
          "name": "_amount",
          "type": "uint256"
        }
      ],
      "name": "deposit",
      "outputs": [],
      "stateMutability": "nonpayable",
      "type": "function"
    },
    {
      "inputs": [],
      "name": "getBettableEvents",
      "outputs": [
        {
          "internalType": "bytes32[]",
          "name": "pendingEvents",
          "type": "bytes32[]"
        }
      ],
      "stateMutability": "view",
      "type": "function"
    },
    {
      "inputs": [],
      "name": "getContractDAIBalance",
      "outputs": [
        {
          "internalType": "uint256",
          "name": "",
          "type": "uint256"
        }
      ],
      "stateMutability": "view",
      "type": "function"
    },
    {
      "inputs": [
        {
          "internalType": "bytes32",
          "name": "_eventId",
          "type": "bytes32"
        }
      ],
      "name": "getEvent",
      "outputs": [
        {
          "internalType": "bytes32",
          "name": "id",
          "type": "bytes32"
        },
        {
          "internalType": "string",
          "name": "name",
          "type": "string"
        },
        {
          "internalType": "string",
          "name": "participants",
          "type": "string"
        },
        {
          "internalType": "uint8",
          "name": "participantCount",
          "type": "uint8"
        },
        {
          "internalType": "uint256",
          "name": "date",
          "type": "uint256"
        },
        {
          "internalType": "enum OracleInterface.SportKind",
          "name": "kind",
          "type": "uint8"
        },
        {
          "internalType": "enum OracleInterface.EventOutcome",
          "name": "outcome",
          "type": "uint8"
        },
        {
          "internalType": "int8",
          "name": "winner",
          "type": "int8"
        }
      ],
      "stateMutability": "view",
      "type": "function"
    },
    {
      "inputs": [],
      "name": "getLatestEvent",
      "outputs": [
        {
          "internalType": "bytes32",
          "name": "id",
          "type": "bytes32"
        },
        {
          "internalType": "string",
          "name": "name",
          "type": "string"
        },
        {
          "internalType": "string",
          "name": "participants",
          "type": "string"
        },
        {
          "internalType": "uint256",
          "name": "participantCount",
          "type": "uint256"
        },
        {
          "internalType": "uint256",
          "name": "date",
          "type": "uint256"
        },
        {
          "internalType": "enum OracleInterface.SportKind",
          "name": "kind",
          "type": "uint8"
        },
        {
          "internalType": "enum OracleInterface.EventOutcome",
          "name": "outcome",
          "type": "uint8"
        },
        {
          "internalType": "int8",
          "name": "winner",
          "type": "int8"
        }
      ],
      "stateMutability": "view",
      "type": "function"
    },
    {
      "inputs": [],
      "name": "getOracleAddress",
      "outputs": [
        {
          "internalType": "address",
          "name": "",
          "type": "address"
        }
      ],
      "stateMutability": "view",
      "type": "function"
    },
    {
      "inputs": [],
      "name": "owner",
      "outputs": [
        {
          "internalType": "address",
          "name": "",
          "type": "address"
        }
      ],
      "stateMutability": "view",
      "type": "function"
    },
    {
      "inputs": [
        {
          "internalType": "bytes32",
          "name": "_eventId",
          "type": "bytes32"
        },
        {
          "internalType": "uint8",
          "name": "_chosenWinner",
          "type": "uint8"
        }
      ],
      "name": "placeBet",
      "outputs": [],
      "stateMutability": "payable",
      "type": "function"
    },
    {
      "inputs": [],
      "name": "renounceOwnership",
      "outputs": [],
      "stateMutability": "nonpayable",
      "type": "function"
    },
    {
      "inputs": [
        {
          "internalType": "address",
          "name": "_oracleAddress",
          "type": "address"
        }
      ],
      "name": "setOracleAddress",
      "outputs": [
        {
          "internalType": "bool",
          "name": "",
          "type": "bool"
        }
      ],
      "stateMutability": "nonpayable",
      "type": "function"
    },
    {
      "inputs": [],
      "name": "testOracleConnection",
      "outputs": [
        {
          "internalType": "bool",
          "name": "",
          "type": "bool"
        }
      ],
      "stateMutability": "view",
      "type": "function"
    },
    {
      "inputs": [
        {
          "internalType": "address",
          "name": "newOwner",
          "type": "address"
        }
      ],
      "name": "transferOwnership",
      "outputs": [],
      "stateMutability": "nonpayable",
      "type": "function"
    },
    {
      "stateMutability": "payable",
      "type": "receive"
    }
  ],
  "transactionHash": "0xf182b83de281ab488fccf9d2fc16a852b5995a70da015438edfbe8d84e807bae",
  "args": [
    "0x5FbDB2315678afecb367f032d93F642f64180aa3"
  ],
  "solcInputHash": "3fe148d5520355f30130a2a7cc23d57e",
  "bytecode": "0x60806040526000600560006101000a81548173ffffffffffffffffffffffffffffffffffffffff021916908373ffffffffffffffffffffffffffffffffffffffff160217905550600560009054906101000a900473ffffffffffffffffffffffffffffffffffffffff16600660006101000a81548173ffffffffffffffffffffffffffffffffffffffff021916908373ffffffffffffffffffffffffffffffffffffffff16021790555067016345785d8a0000600755348015620000c257600080fd5b50604051620027a9380380620027a98339818101604052810190620000e89190620002af565b62000108620000fc620001cc60201b60201c565b620001d460201b60201c565b6001808190555080600073ffffffffffffffffffffffffffffffffffffffff168173ffffffffffffffffffffffffffffffffffffffff16141562000183576040517f08c379a00000000000000000000000000000000000000000000000000000000081526004016200017a9062000302565b60405180910390fd5b81600260006101000a81548173ffffffffffffffffffffffffffffffffffffffff021916908373ffffffffffffffffffffffffffffffffffffffff1602179055505050620003ac565b600033905090565b60008060009054906101000a900473ffffffffffffffffffffffffffffffffffffffff169050816000806101000a81548173ffffffffffffffffffffffffffffffffffffffff021916908373ffffffffffffffffffffffffffffffffffffffff1602179055508173ffffffffffffffffffffffffffffffffffffffff168173ffffffffffffffffffffffffffffffffffffffff167f8be0079c531659141344cd1fd0a4f28419497f9722a3daafe3b4186f6b6457e060405160405180910390a35050565b600081519050620002a98162000392565b92915050565b600060208284031215620002c257600080fd5b6000620002d28482850162000298565b91505092915050565b6000620002ea60188362000324565b9150620002f78262000369565b602082019050919050565b600060208201905081810360008301526200031d81620002db565b9050919050565b600082825260208201905092915050565b6000620003428262000349565b9050919050565b600073ffffffffffffffffffffffffffffffffffffffff82169050919050565b7f416464726573732030206973206e6f7420616c6c6f7765640000000000000000600082015250565b6200039d8162000335565b8114620003a957600080fd5b50565b6123ed80620003bc6000396000f3fe6080604052600436106100c65760003560e01c806379ff47771161007f5780639a74c81f116100595780639a74c81f146102605780639be2395d1461028b578063b18b78dd146102b6578063f2fde38b146102e1576100cd565b806379ff4777146101bf5780638c172fa2146101f15780638da5cb5b14610235576100cd565b8063095ea7b3146100d25780630e52bb49146100fb5780632ce3707e1461011757806347e7ef24146101425780634c69c00f1461016b578063715018a6146101a8576100cd565b366100cd57005b600080fd5b3480156100de57600080fd5b506100f960048036038101906100f491906116a6565b61030a565b005b61011560048036038101906101109190611857565b610430565b005b34801561012357600080fd5b5061012c6108a6565b6040516101399190611bca565b60405180910390f35b34801561014e57600080fd5b50610169600480360381019061016491906116a6565b6109a7565b005b34801561017757600080fd5b50610192600480360381019061018d919061167d565b610b13565b60405161019f9190611bca565b60405180910390f35b3480156101b457600080fd5b506101bd610da7565b005b3480156101cb57600080fd5b506101d4610e2f565b6040516101e8989796959493929190611c45565b60405180910390f35b3480156101fd57600080fd5b506102186004803603810190610213919061174c565b610f0d565b60405161022c989796959493929190611cd1565b60405180910390f35b34801561024157600080fd5b5061024a610fe5565b6040516102579190611b2d565b60405180910390f35b34801561026c57600080fd5b5061027561100e565b6040516102829190611ead565b60405180910390f35b34801561029757600080fd5b506102a06110c0565b6040516102ad9190611ba8565b60405180910390f35b3480156102c257600080fd5b506102cb6111cd565b6040516102d89190611b2d565b60405180910390f35b3480156102ed57600080fd5b506103086004803603810190610303919061167d565b6111f7565b005b81600073ffffffffffffffffffffffffffffffffffffffff168173ffffffffffffffffffffffffffffffffffffffff16141561037b576040517f08c379a000000000000000000000000000000000000000000000000000000000815260040161037290611e4d565b60405180910390fd5b600260009054906101000a900473ffffffffffffffffffffffffffffffffffffffff1673ffffffffffffffffffffffffffffffffffffffff1663095ea7b384846040518363ffffffff1660e01b81526004016103d8929190611b7f565b602060405180830381600087803b1580156103f257600080fd5b505af1158015610406573d6000803e3d6000fd5b505050506040513d601f19601f8201168201806040525081019061042a9190611723565b50505050565b33600073ffffffffffffffffffffffffffffffffffffffff168173ffffffffffffffffffffffffffffffffffffffff1614156104a1576040517f08c379a000000000000000000000000000000000000000000000000000000000815260040161049890611e4d565b60405180910390fd5b600260015414156104e7576040517f08c379a00000000000000000000000000000000000000000000000000000000081526004016104de90611e8d565b60405180910390fd5b6002600181905550600754341015610534576040517f08c379a000000000000000000000000000000000000000000000000000000000815260040161052b90611e2d565b60405180910390fd5b600660009054906101000a900473ffffffffffffffffffffffffffffffffffffffff1673ffffffffffffffffffffffffffffffffffffffff1663118e58bd846040518263ffffffff1660e01b815260040161058f9190611be5565b60206040518083038186803b1580156105a757600080fd5b505afa1580156105bb573d6000803e3d6000fd5b505050506040513d601f19601f820116820180604052508101906105df9190611723565b61061e576040517f08c379a000000000000000000000000000000000000000000000000000000000815260040161061590611dcd565b60405180910390fd5b6106293384846112ef565b610668576040517f08c379a000000000000000000000000000000000000000000000000000000000815260040161065f90611e0d565b60405180910390fd5b610671836112fc565b6106b0576040517f08c379a00000000000000000000000000000000000000000000000000000000081526004016106a790611ded565b60405180910390fd5b3073ffffffffffffffffffffffffffffffffffffffff166108fc349081150290604051600060405180830381858888f193505050501580156106f6573d6000803e3d6000fd5b5060006004600085815260200190815260200160002090508060405180608001604052803373ffffffffffffffffffffffffffffffffffffffff1681526020018681526020013481526020018560ff16815250908060018154018082558091505060019003906000526020600020906004020160009091909190915060008201518160000160006101000a81548173ffffffffffffffffffffffffffffffffffffffff021916908373ffffffffffffffffffffffffffffffffffffffff160217905550602082015181600101556040820151816002015560608201518160030160006101000a81548160ff021916908360ff16021790555050506000600360003373ffffffffffffffffffffffffffffffffffffffff1673ffffffffffffffffffffffffffffffffffffffff1681526020019081526020016000209050808590806001815401808255809150506001900390600052602060002001600090919091909150557f22f4c9bb73a93d9507392476fa412371d3d5e19e74d8951567b76a7483dca1a0853386346040516108909493929190611c00565b60405180910390a1505060018081905550505050565b60008073ffffffffffffffffffffffffffffffffffffffff16600560009054906101000a900473ffffffffffffffffffffffffffffffffffffffff1673ffffffffffffffffffffffffffffffffffffffff16141580156109a25750600660009054906101000a900473ffffffffffffffffffffffffffffffffffffffff1673ffffffffffffffffffffffffffffffffffffffff16633412a15c6040518163ffffffff1660e01b815260040160206040518083038186803b15801561096957600080fd5b505afa15801561097d573d6000803e3d6000fd5b505050506040513d601f19601f820116820180604052508101906109a19190611723565b5b905090565b81600073ffffffffffffffffffffffffffffffffffffffff168173ffffffffffffffffffffffffffffffffffffffff161415610a18576040517f08c379a0000000000000000000000000000000000000000000000000000000008152600401610a0f90611e4d565b60405180910390fd5b600a821015610a5c576040517f08c379a0000000000000000000000000000000000000000000000000000000008152600401610a5390611d8d565b60405180910390fd5b600260009054906101000a900473ffffffffffffffffffffffffffffffffffffffff1673ffffffffffffffffffffffffffffffffffffffff166323b872dd8430856040518463ffffffff1660e01b8152600401610abb93929190611b48565b602060405180830381600087803b158015610ad557600080fd5b505af1158015610ae9573d6000803e3d6000fd5b505050506040513d601f19601f82011682018060405250810190610b0d9190611723565b50505050565b6000610b1d611307565b73ffffffffffffffffffffffffffffffffffffffff16610b3b610fe5565b73ffffffffffffffffffffffffffffffffffffffff1614610b91576040517f08c379a0000000000000000000000000000000000000000000000000000000008152600401610b8890611e6d565b60405180910390fd5b81600073ffffffffffffffffffffffffffffffffffffffff168173ffffffffffffffffffffffffffffffffffffffff161415610c02576040517f08c379a0000000000000000000000000000000000000000000000000000000008152600401610bf990611e4d565b60405180910390fd5b82600560006101000a81548173ffffffffffffffffffffffffffffffffffffffff021916908373ffffffffffffffffffffffffffffffffffffffff160217905550600560009054906101000a900473ffffffffffffffffffffffffffffffffffffffff16600660006101000a81548173ffffffffffffffffffffffffffffffffffffffff021916908373ffffffffffffffffffffffffffffffffffffffff1602179055507fdd82bdfc28fcc826c53263dc2a2b6083e27e92699ebfee617227e08e21c202f0600560009054906101000a900473ffffffffffffffffffffffffffffffffffffffff16604051610cf79190611b2d565b60405180910390a1600660009054906101000a900473ffffffffffffffffffffffffffffffffffffffff1673ffffffffffffffffffffffffffffffffffffffff16633412a15c6040518163ffffffff1660e01b815260040160206040518083038186803b158015610d6757600080fd5b505afa158015610d7b573d6000803e3d6000fd5b505050506040513d601f19601f82011682018060405250810190610d9f9190611723565b915050919050565b610daf611307565b73ffffffffffffffffffffffffffffffffffffffff16610dcd610fe5565b73ffffffffffffffffffffffffffffffffffffffff1614610e23576040517f08c379a0000000000000000000000000000000000000000000000000000000008152600401610e1a90611e6d565b60405180910390fd5b610e2d600061130f565b565b60006060806000806000806000600660009054906101000a900473ffffffffffffffffffffffffffffffffffffffff1673ffffffffffffffffffffffffffffffffffffffff166329e5426960016040518263ffffffff1660e01b8152600401610e989190611bca565b60006040518083038186803b158015610eb057600080fd5b505afa158015610ec4573d6000803e3d6000fd5b505050506040513d6000823e3d601f19601f82011682018060405250810190610eed9190611775565b8460ff169450975097509750975097509750975097509091929394959697565b60006060806000806000806000600660009054906101000a900473ffffffffffffffffffffffffffffffffffffffff1673ffffffffffffffffffffffffffffffffffffffff16638c172fa28a6040518263ffffffff1660e01b8152600401610f759190611be5565b60006040518083038186803b158015610f8d57600080fd5b505afa158015610fa1573d6000803e3d6000fd5b505050506040513d6000823e3d601f19601f82011682018060405250810190610fca9190611775565b97509750975097509750975097509750919395975091939597565b60008060009054906101000a900473ffffffffffffffffffffffffffffffffffffffff16905090565b6000600260009054906101000a900473ffffffffffffffffffffffffffffffffffffffff1673ffffffffffffffffffffffffffffffffffffffff166370a08231306040518263ffffffff1660e01b815260040161106b9190611b2d565b60206040518083038186803b15801561108357600080fd5b505afa158015611097573d6000803e3d6000fd5b505050506040513d601f19601f820116820180604052508101906110bb9190611893565b905090565b60606111236040518060400160405280601d81526020017f6765744265747461626c654576656e747320616464726573733a202573000000815250600560009054906101000a900473ffffffffffffffffffffffffffffffffffffffff166113d3565b600660009054906101000a900473ffffffffffffffffffffffffffffffffffffffff1673ffffffffffffffffffffffffffffffffffffffff1663b4184e706040518163ffffffff1660e01b815260040160006040518083038186803b15801561118b57600080fd5b505afa15801561119f573d6000803e3d6000fd5b505050506040513d6000823e3d601f19601f820116820180604052508101906111c891906116e2565b905090565b6000600560009054906101000a900473ffffffffffffffffffffffffffffffffffffffff16905090565b6111ff611307565b73ffffffffffffffffffffffffffffffffffffffff1661121d610fe5565b73ffffffffffffffffffffffffffffffffffffffff1614611273576040517f08c379a000000000000000000000000000000000000000000000000000000000815260040161126a90611e6d565b60405180910390fd5b600073ffffffffffffffffffffffffffffffffffffffff168173ffffffffffffffffffffffffffffffffffffffff1614156112e3576040517f08c379a00000000000000000000000000000000000000000000000000000000081526004016112da90611dad565b60405180910390fd5b6112ec8161130f565b50565b6000600190509392505050565b600060019050919050565b600033905090565b60008060009054906101000a900473ffffffffffffffffffffffffffffffffffffffff169050816000806101000a81548173ffffffffffffffffffffffffffffffffffffffff021916908373ffffffffffffffffffffffffffffffffffffffff1602179055508173ffffffffffffffffffffffffffffffffffffffff168173ffffffffffffffffffffffffffffffffffffffff167f8be0079c531659141344cd1fd0a4f28419497f9722a3daafe3b4186f6b6457e060405160405180910390a35050565b61146b82826040516024016113e9929190611d5d565b6040516020818303038152906040527f319af333000000000000000000000000000000000000000000000000000000007bffffffffffffffffffffffffffffffffffffffffffffffffffffffff19166020820180517bffffffffffffffffffffffffffffffffffffffffffffffffffffffff838183161783525050505061146f565b5050565b60008151905060006a636f6e736f6c652e6c6f679050602083016000808483855afa5050505050565b60006114ab6114a684611eed565b611ec8565b905080838252602082019050828560208602820111156114ca57600080fd5b60005b858110156114fa57816114e088826115ab565b8452602084019350602083019250506001810190506114cd565b5050509392505050565b600061151761151284611f19565b611ec8565b90508281526020810184848401111561152f57600080fd5b61153a848285612055565b509392505050565b6000813590506115518161230d565b92915050565b600082601f83011261156857600080fd5b8151611578848260208601611498565b91505092915050565b60008151905061159081612324565b92915050565b6000813590506115a58161233b565b92915050565b6000815190506115ba8161233b565b92915050565b6000815190506115cf81612352565b92915050565b6000815190506115e481612362565b92915050565b6000815190506115f981612372565b92915050565b600082601f83011261161057600080fd5b8151611620848260208601611504565b91505092915050565b60008135905061163881612389565b92915050565b60008151905061164d81612389565b92915050565b600081359050611662816123a0565b92915050565b600081519050611677816123a0565b92915050565b60006020828403121561168f57600080fd5b600061169d84828501611542565b91505092915050565b600080604083850312156116b957600080fd5b60006116c785828601611542565b92505060206116d885828601611629565b9150509250929050565b6000602082840312156116f457600080fd5b600082015167ffffffffffffffff81111561170e57600080fd5b61171a84828501611557565b91505092915050565b60006020828403121561173557600080fd5b600061174384828501611581565b91505092915050565b60006020828403121561175e57600080fd5b600061176c84828501611596565b91505092915050565b600080600080600080600080610100898b03121561179257600080fd5b60006117a08b828c016115ab565b985050602089015167ffffffffffffffff8111156117bd57600080fd5b6117c98b828c016115ff565b975050604089015167ffffffffffffffff8111156117e657600080fd5b6117f28b828c016115ff565b96505060606118038b828c01611668565b95505060806118148b828c0161163e565b94505060a06118258b828c016115d5565b93505060c06118368b828c016115c0565b92505060e06118478b828c016115ea565b9150509295985092959890939650565b6000806040838503121561186a57600080fd5b600061187885828601611596565b925050602061188985828601611653565b9150509250929050565b6000602082840312156118a557600080fd5b60006118b38482850161163e565b91505092915050565b60006118c88383611950565b60208301905092915050565b6118dd81611f9f565b82525050565b60006118ee82611f5a565b6118f88185611f7d565b935061190383611f4a565b8060005b8381101561193457815161191b88826118bc565b975061192683611f70565b925050600181019050611907565b5085935050505092915050565b61194a81611fb1565b82525050565b61195981611fbd565b82525050565b61196881611fbd565b82525050565b61197781612031565b82525050565b61198681612043565b82525050565b61199581611fed565b82525050565b60006119a682611f65565b6119b08185611f8e565b93506119c0818560208601612055565b6119c981612117565b840191505092915050565b60006119e1601e83611f8e565b91506119ec82612128565b602082019050919050565b6000611a04602683611f8e565b9150611a0f82612151565b604082019050919050565b6000611a27601983611f8e565b9150611a32826121a0565b602082019050919050565b6000611a4a601a83611f8e565b9150611a55826121c9565b602082019050919050565b6000611a6d601083611f8e565b9150611a78826121f2565b602082019050919050565b6000611a90602183611f8e565b9150611a9b8261221b565b604082019050919050565b6000611ab3601883611f8e565b9150611abe8261226a565b602082019050919050565b6000611ad6602083611f8e565b9150611ae182612293565b602082019050919050565b6000611af9601f83611f8e565b9150611b04826122bc565b602082019050919050565b611b188161201a565b82525050565b611b2781612024565b82525050565b6000602082019050611b4260008301846118d4565b92915050565b6000606082019050611b5d60008301866118d4565b611b6a60208301856118d4565b611b776040830184611b0f565b949350505050565b6000604082019050611b9460008301856118d4565b611ba16020830184611b0f565b9392505050565b60006020820190508181036000830152611bc281846118e3565b905092915050565b6000602082019050611bdf6000830184611941565b92915050565b6000602082019050611bfa600083018461195f565b92915050565b6000608082019050611c15600083018761195f565b611c2260208301866118d4565b611c2f6040830185611b1e565b611c3c6060830184611b0f565b95945050505050565b600061010082019050611c5b600083018b61195f565b8181036020830152611c6d818a61199b565b90508181036040830152611c81818961199b565b9050611c906060830188611b0f565b611c9d6080830187611b0f565b611caa60a083018661197d565b611cb760c083018561196e565b611cc460e083018461198c565b9998505050505050505050565b600061010082019050611ce7600083018b61195f565b8181036020830152611cf9818a61199b565b90508181036040830152611d0d818961199b565b9050611d1c6060830188611b1e565b611d296080830187611b0f565b611d3660a083018661197d565b611d4360c083018561196e565b611d5060e083018461198c565b9998505050505050505050565b60006040820190508181036000830152611d77818561199b565b9050611d8660208301846118d4565b9392505050565b60006020820190508181036000830152611da6816119d4565b9050919050565b60006020820190508181036000830152611dc6816119f7565b9050919050565b60006020820190508181036000830152611de681611a1a565b9050919050565b60006020820190508181036000830152611e0681611a3d565b9050919050565b60006020820190508181036000830152611e2681611a60565b9050919050565b60006020820190508181036000830152611e4681611a83565b9050919050565b60006020820190508181036000830152611e6681611aa6565b9050919050565b60006020820190508181036000830152611e8681611ac9565b9050919050565b60006020820190508181036000830152611ea681611aec565b9050919050565b6000602082019050611ec26000830184611b0f565b92915050565b6000611ed2611ee3565b9050611ede8282612088565b919050565b6000604051905090565b600067ffffffffffffffff821115611f0857611f076120e8565b5b602082029050602081019050919050565b600067ffffffffffffffff821115611f3457611f336120e8565b5b611f3d82612117565b9050602081019050919050565b6000819050602082019050919050565b600081519050919050565b600081519050919050565b6000602082019050919050565b600082825260208201905092915050565b600082825260208201905092915050565b6000611faa82611ffa565b9050919050565b60008115159050919050565b6000819050919050565b6000819050611fd5826122e5565b919050565b6000819050611fe8826122f9565b919050565b60008160000b9050919050565b600073ffffffffffffffffffffffffffffffffffffffff82169050919050565b6000819050919050565b600060ff82169050919050565b600061203c82611fc7565b9050919050565b600061204e82611fda565b9050919050565b60005b83811015612073578082015181840152602081019050612058565b83811115612082576000848401525b50505050565b61209182612117565b810181811067ffffffffffffffff821117156120b0576120af6120e8565b5b80604052505050565b7f4e487b7100000000000000000000000000000000000000000000000000000000600052602160045260246000fd5b7f4e487b7100000000000000000000000000000000000000000000000000000000600052604160045260246000fd5b6000601f19601f8301169050919050565b7f416d6f756e74206465706f7369746564206d757374206265203e3d2031300000600082015250565b7f4f776e61626c653a206e6577206f776e657220697320746865207a65726f206160008201527f6464726573730000000000000000000000000000000000000000000000000000602082015250565b7f537065636966696564206576656e74206e6f7420666f756e6400000000000000600082015250565b7f4576656e74206e6f74206f70656e20666f722062657474696e67000000000000600082015250565b7f426574206973206e6f742076616c696400000000000000000000000000000000600082015250565b7f42657420616d6f756e74206d757374206265203e3d206d696e696d756d20626560008201527f7400000000000000000000000000000000000000000000000000000000000000602082015250565b7f416464726573732030206973206e6f7420616c6c6f7765640000000000000000600082015250565b7f4f776e61626c653a2063616c6c6572206973206e6f7420746865206f776e6572600082015250565b7f5265656e7472616e637947756172643a207265656e7472616e742063616c6c00600082015250565b600481106122f6576122f56120b9565b5b50565b6003811061230a576123096120b9565b5b50565b61231681611f9f565b811461232157600080fd5b50565b61232d81611fb1565b811461233857600080fd5b50565b61234481611fbd565b811461234f57600080fd5b50565b6004811061235f57600080fd5b50565b6003811061236f57600080fd5b50565b61237b81611fed565b811461238657600080fd5b50565b6123928161201a565b811461239d57600080fd5b50565b6123a981612024565b81146123b457600080fd5b5056fea26469706673582212204e0146e2a5e48d1dc604b96230a5e0752fd72fe6e40f8e318f9ef905400d47bc64736f6c63430008040033",
  "devdoc": {
    "events": {
      "BetPlaced(bytes32,address,uint8,uint256)": {
        "details": "Sent when once a bet is placed"
      },
      "OracleAddressSet(address)": {
        "details": "Sent once the Sport Event Oracle is set"
      }
    },
    "kind": "dev",
    "methods": {
      "approve(address,uint256)": {
        "params": {
          "_amount": "the amount approved to be used by _spender",
          "_spender": "an address allowed to spend user's DAI"
        }
      },
      "constructor": {
        "params": {
          "_tokenAddress": "the address of the deployed ERC20 DAI token"
        }
      },
      "deposit(address,uint256)": {
        "params": {
          "_amount": "the amount to be deposited",
          "_sender": "the address that owns  the tokens"
        }
      },
      "getBettableEvents()": {
        "returns": {
          "pendingEvents": "the list of pending sport events"
        }
      },
      "getContractDAIBalance()": {
        "returns": {
          "_0": "the DAI balance of the contract"
        }
      },
      "getEvent(bytes32)": {
        "params": {
          "_eventId": "the id of the desired event"
        },
        "returns": {
          "date": "when the event takes place",
          "id": "  the id of the event",
          "kind": "what is sport kind",
          "name": "the name of the event",
          "outcome": "an integer that represents the event outcome",
          "participantCount": "the number of the event's participants",
          "participants": "a string with the name of the event's participants separated with a pipe symbol ('|')",
          "winner": "the index of the winner"
        }
      },
      "getLatestEvent()": {
        "returns": {
          "date": "when the event takes place",
          "id": "  the id of the event",
          "kind": "what is sport kind",
          "name": "the name of the event",
          "outcome": "an integer that represents the event outcome",
          "participantCount": "the number of the event's participants",
          "participants": "the name of the event's participants separated with a pipe symbol ('|')",
          "winner": "the index of the winner (0 = TeamA, 1 = TeamB)"
        }
      },
      "getOracleAddress()": {
        "returns": {
          "_0": "the address of the oracle we use to get the sport events and their outcomes"
        }
      },
      "owner()": {
        "details": "Returns the address of the current owner."
      },
      "placeBet(bytes32,uint8)": {
        "params": {
          "_chosenWinner": "index of the supposed winner team",
          "_eventId": "id of the sport event on which to bet"
        }
      },
      "renounceOwnership()": {
        "details": "Leaves the contract without owner. It will not be possible to call `onlyOwner` functions anymore. Can only be called by the current owner. NOTE: Renouncing ownership will leave the contract without an owner, thereby removing any functionality that is only available to the owner."
      },
      "setOracleAddress(address)": {
        "details": "setting a wrong address may result in false return value, or error",
        "params": {
          "_oracleAddress": "the address of the sport event bet oracle"
        }
      },
      "transferOwnership(address)": {
        "details": "Transfers ownership of the contract to a new account (`newOwner`). Can only be called by the current owner."
      }
    },
    "stateVariables": {
      "Dai": {
        "details": "An instance of ERC20 DAI Token"
      },
      "betOracle": {
        "details": "Instance of the sport events Oracle (used to register sport events get their outcome)."
      },
      "eventToBets": {
        "details": "for any given event, get a list of all bets that have been made for that event    map composed of (event id => array of bets) pairs"
      },
      "minimumBet": {
        "details": "minimum bet amount"
      },
      "oracleAddress": {
        "details": "Address of the sport events Oracle"
      },
      "userToBets": {
        "details": "list of all bets per player, ie. a map composed (player address => bet id) pairs"
      }
    },
    "version": 1
  },
  "userdoc": {
    "kind": "user",
    "methods": {
      "approve(address,uint256)": {
        "notice": "Sets `_amount` as the allowance of `_spender` over the caller's tokens."
      },
      "deposit(address,uint256)": {
        "notice": "Moves `_amount` tokens from `_sender` to this contract"
      },
      "getBettableEvents()": {
        "notice": "gets a list ids of all currently bettable events"
      },
      "getEvent(bytes32)": {
        "notice": "returns the full data of the specified event"
      },
      "getLatestEvent()": {
        "notice": "returns the full data of the most recent bettable sport event"
      },
      "placeBet(bytes32,uint8)": {
        "notice": "places a bet on the given event"
      },
      "setOracleAddress(address)": {
        "notice": "sets the address of the sport event bet oracle contract to use"
      },
      "testOracleConnection()": {
        "notice": "for testing purposes: make sure that the sport event oracle is callable"
      }
    },
    "notice": "This Ethereum smart-contract takes bets placed on sport events. It then invests all bets deposits for a given event (pot) in DeFi. Then once the event outcome is confirmed, it makes the accrued interests ready for the winners to withdraw proportionnaly to their initial stake. Players do not loose their stake.",
    "version": 1
  },
  "storageLayout": {
    "storage": [
      {
        "astId": 7,
        "contract": "contracts/Bet.sol:Bet",
        "label": "_owner",
        "offset": 0,
        "slot": "0",
        "type": "t_address"
      },
      {
        "astId": 114,
        "contract": "contracts/Bet.sol:Bet",
        "label": "_status",
        "offset": 0,
        "slot": "1",
        "type": "t_uint256"
      },
      {
        "astId": 259,
        "contract": "contracts/Bet.sol:Bet",
        "label": "Dai",
        "offset": 0,
        "slot": "2",
        "type": "t_contract(IERC20)221"
      },
      {
        "astId": 265,
        "contract": "contracts/Bet.sol:Bet",
        "label": "userToBets",
        "offset": 0,
        "slot": "3",
        "type": "t_mapping(t_address,t_array(t_bytes32)dyn_storage)"
      },
      {
        "astId": 272,
        "contract": "contracts/Bet.sol:Bet",
        "label": "eventToBets",
        "offset": 0,
        "slot": "4",
        "type": "t_mapping(t_bytes32,t_array(t_struct(Payload)299_storage)dyn_storage)"
      },
      {
        "astId": 279,
        "contract": "contracts/Bet.sol:Bet",
        "label": "oracleAddress",
        "offset": 0,
        "slot": "5",
        "type": "t_address"
      },
      {
        "astId": 286,
        "contract": "contracts/Bet.sol:Bet",
        "label": "betOracle",
        "offset": 0,
        "slot": "6",
        "type": "t_contract(OracleInterface)773"
      },
      {
        "astId": 290,
        "contract": "contracts/Bet.sol:Bet",
        "label": "minimumBet",
        "offset": 0,
        "slot": "7",
        "type": "t_uint256"
      }
    ],
    "types": {
      "t_address": {
        "encoding": "inplace",
        "label": "address",
        "numberOfBytes": "20"
      },
      "t_array(t_bytes32)dyn_storage": {
        "base": "t_bytes32",
        "encoding": "dynamic_array",
        "label": "bytes32[]",
        "numberOfBytes": "32"
      },
      "t_array(t_struct(Payload)299_storage)dyn_storage": {
        "base": "t_struct(Payload)299_storage",
        "encoding": "dynamic_array",
        "label": "struct Bet.Payload[]",
        "numberOfBytes": "32"
      },
      "t_bytes32": {
        "encoding": "inplace",
        "label": "bytes32",
        "numberOfBytes": "32"
      },
      "t_contract(IERC20)221": {
        "encoding": "inplace",
        "label": "contract IERC20",
        "numberOfBytes": "20"
      },
      "t_contract(OracleInterface)773": {
        "encoding": "inplace",
        "label": "contract OracleInterface",
        "numberOfBytes": "20"
      },
      "t_mapping(t_address,t_array(t_bytes32)dyn_storage)": {
        "encoding": "mapping",
        "key": "t_address",
        "label": "mapping(address => bytes32[])",
        "numberOfBytes": "32",
        "value": "t_array(t_bytes32)dyn_storage"
      },
      "t_mapping(t_bytes32,t_array(t_struct(Payload)299_storage)dyn_storage)": {
        "encoding": "mapping",
        "key": "t_bytes32",
        "label": "mapping(bytes32 => struct Bet.Payload[])",
        "numberOfBytes": "32",
        "value": "t_array(t_struct(Payload)299_storage)dyn_storage"
      },
      "t_struct(Payload)299_storage": {
        "encoding": "inplace",
        "label": "struct Bet.Payload",
        "members": [
          {
            "astId": 292,
            "contract": "contracts/Bet.sol:Bet",
            "label": "user",
            "offset": 0,
            "slot": "0",
            "type": "t_address"
          },
          {
            "astId": 294,
            "contract": "contracts/Bet.sol:Bet",
            "label": "eventId",
            "offset": 0,
            "slot": "1",
            "type": "t_bytes32"
          },
          {
            "astId": 296,
            "contract": "contracts/Bet.sol:Bet",
            "label": "amount",
            "offset": 0,
            "slot": "2",
            "type": "t_uint256"
          },
          {
            "astId": 298,
            "contract": "contracts/Bet.sol:Bet",
            "label": "chosenWinner",
            "offset": 0,
            "slot": "3",
            "type": "t_uint8"
          }
        ],
        "numberOfBytes": "128"
      },
      "t_uint256": {
        "encoding": "inplace",
        "label": "uint256",
        "numberOfBytes": "32"
      },
      "t_uint8": {
        "encoding": "inplace",
        "label": "uint8",
        "numberOfBytes": "1"
      }
    }
  }
}